{
  "contractName": "ADD",
  "abi": [
    {
      "inputs": [
        {
          "internalType": "uint256",
          "name": "a",
          "type": "uint256"
        },
        {
          "internalType": "uint256",
          "name": "b",
          "type": "uint256"
        },
        {
          "internalType": "uint256",
          "name": "c",
          "type": "uint256"
        }
      ],
      "name": "add",
      "outputs": [
        {
          "internalType": "uint256",
          "name": "",
          "type": "uint256"
        }
      ],
      "stateMutability": "pure",
      "type": "function",
      "constant": true
    }
  ],
  "bytecode": "0x6080604052600a60005534801561001557600080fd5b506101d3806100256000396000f3fe608060405234801561001057600080fd5b506004361061002b5760003560e01c8063505fb46c14610030575b600080fd5b61004a600480360381019061004591906100bd565b610060565b604051610057919061011f565b60405180910390f35b600081838561006f9190610169565b6100799190610169565b90509392505050565b600080fd5b6000819050919050565b61009a81610087565b81146100a557600080fd5b50565b6000813590506100b781610091565b92915050565b6000806000606084860312156100d6576100d5610082565b5b60006100e4868287016100a8565b93505060206100f5868287016100a8565b9250506040610106868287016100a8565b9150509250925092565b61011981610087565b82525050565b60006020820190506101346000830184610110565b92915050565b7f4e487b7100000000000000000000000000000000000000000000000000000000600052601160045260246000fd5b600061017482610087565b915061017f83610087565b92508282019050808211156101975761019661013a565b5b9291505056fea264697066735822122097eca3b9b3f6ae44d7090d62ea62b4f602635bc8c0c3e350860c3578473560f864736f6c63430008130033",
  "immutableReferences": {},
  "source": "// SPDX-License-Identifier: MIT\npragma solidity ^0.8.19;\n\ncontract ADD {\n    uint d=10;\n    function add(uint a, uint b, uint c) public pure returns(uint) {\n        return a+b+c;\n    }\n}\n\ncontract MUL {\n  function mul(uint a, uint b) public pure returns(uint) {\n    return a*b;\n  }\n}",
  "sourcePath": "/Users/oneulcoding/Desktop/LikeLionTruffle/0608/contracts/MUL.sol",
  "compiler": {
    "name": "solc",
    "version": "0.8.19+commit.7dd6d404.Emscripten.clang"
  },
  "schemaVersion": "3.4.14",
  "updatedAt": "2023-06-08T02:50:01.760Z",
  "networkType": "ethereum",
  "devdoc": {
    "kind": "dev",
    "methods": {},
    "version": 1
  },
  "userdoc": {
    "kind": "user",
    "methods": {},
    "version": 1
  }
}