{
  "contractName": "ADD",
  "abi": [
    {
      "inputs": [
        {
          "internalType": "uint256",
          "name": "a",
          "type": "uint256"
        },
        {
          "internalType": "uint256",
          "name": "b",
          "type": "uint256"
        }
      ],
      "name": "add",
      "outputs": [
        {
          "internalType": "uint256",
          "name": "",
          "type": "uint256"
        }
      ],
      "stateMutability": "pure",
      "type": "function"
    },
    {
      "inputs": [
        {
          "internalType": "uint256",
          "name": "_a",
          "type": "uint256"
        }
      ],
      "name": "setA",
      "outputs": [],
      "stateMutability": "nonpayable",
      "type": "function"
    }
  ],
  "bytecode": "0x6080604052600a60005534801561001557600080fd5b50610212806100256000396000f3fe608060405234801561001057600080fd5b50600436106100365760003560e01c8063771602f71461003b578063ee919d501461006b575b600080fd5b610055600480360381019061005091906100e2565b610087565b6040516100629190610131565b60405180910390f35b6100856004803603810190610080919061014c565b61009d565b005b6000818361009591906101a8565b905092915050565b8060008190555050565b600080fd5b6000819050919050565b6100bf816100ac565b81146100ca57600080fd5b50565b6000813590506100dc816100b6565b92915050565b600080604083850312156100f9576100f86100a7565b5b6000610107858286016100cd565b9250506020610118858286016100cd565b9150509250929050565b61012b816100ac565b82525050565b60006020820190506101466000830184610122565b92915050565b600060208284031215610162576101616100a7565b5b6000610170848285016100cd565b91505092915050565b7f4e487b7100000000000000000000000000000000000000000000000000000000600052601160045260246000fd5b60006101b3826100ac565b91506101be836100ac565b92508282019050808211156101d6576101d5610179565b5b9291505056fea26469706673582212202a61a5ca9054f17aa05a3a088ed8f0e6b41fccd576e4d8fc948a80af9546828a64736f6c63430008130033",
  "immutableReferences": {},
  "source": "// SPDX-License-Identifier: MIT\npragma solidity ^0.8.19;\n\ncontract ADD {\n  uint aa=10;\n  function add(uint a, uint b) public pure returns(uint) {\n    return a+b;\n  }\n\n  function setA(uint _a) public {\n    aa = _a;\n  }\n}\n\ncontract SUB {\n  function sub(uint a, uint b) public pure returns(uint) {\n    return a-b;\n  }\n}",
  "sourcePath": "/Users/oneulcoding/Desktop/LikeLionTruffle/0608/contracts/AS.sol",
  "compiler": {
    "name": "solc",
    "version": "0.8.19+commit.7dd6d404.Emscripten.clang"
  },
  "schemaVersion": "3.4.14",
  "updatedAt": "2023-06-08T06:07:14.295Z",
  "devdoc": {
    "kind": "dev",
    "methods": {},
    "version": 1
  },
  "userdoc": {
    "kind": "user",
    "methods": {},
    "version": 1
  }
}